:100000000C9408240C94E6260C9411270C943C279D
:100010000C9467270C9492270C94BD270C94E82726
:100020000C9413280C9439240C9439240C943924FE
:100030000C9439240C9439240C9439240C943924CC
:100040000C9439240D947D420C9439240C94392459
:100050000C9439240C9439240D9490570C943B241F
:100060000C9439240D94221C0C9439240C943924BA
:100070000C9439240C9439240C9439240C9439248C
:100080000C9439240C9439240C9439240C9439247C
:100090000C9439240C9439240C9439240C94223275
:1000A0000C9439240C9439240C9439240C9439245C
:1000B0000C9439240C9439240C9439240C9439244C
:1000C0000C9439240C9439240C9439240C9439243C
:1000D0000C9439240C9439240C9439240C9439242C
:1000E0000C943924842589258E259825A2251B2644
:1000F000AC25B425BC25C625D025DA25E925F32570
:100100001B26FD25072611263F26422631263526A9
:100110003B26792646264A265026542658265E2611
:100120006226662679266C2670267426342A342A9E
:100130003C2A442A542A5C2A642A6C2A742A4C2AAF
:10014000560142016A014E0146015E0136012E014F
:1001500030015C0136015A012C013E01500154016D
:10016000580136016C013201760136013C017A01F9
:10017000440178014C0152017C01340174013A01BF
:100180004A016201680166013801480164013601D3
:1001900036013601360136013601360136013601A7
:1001A0003601360136013601360136013601360197
:1001B0003601360136013601360136013601360187
:1001C0003601360136013601360136013601360177
:1001D0003601360136013601360136013601360167
:1001E0003601360136013601360136013601360157
:1001F0003601360136013601360136013601360147
:10020000360136013601360172014001084AD73BFA
:100210003BCE016E84BCBFFDC12F3D6C74319ABDD5
:1002200056833DDA3D00C77F11BED9E4BB4C3E91F9
:100230006BAAAABE000000803F05A84CCDB2D44EE8
:10024000B93836A9020C50B9918688083CA6AAAAEA
:100250002ABE000000803F000D94D86B0D94CC6B3B
:100260000D94CE6B0D94BA6B0D940B6B0D947E6B4D
:100270000D94226B0D940F6B0D94BF6B0D94976BC7
:100280000D944C6B0D94DA6A0D94F16A0D94C86B61
:100290000D94286B0D94116B0D94016B0D94C66B2E
:1002A0000D94DA6B0D94036B0D94DC6B0D94D76A8F
:1002B0000D94DE6B0D94D46B0D94D16B0D94CA6BC1
:1002C0000D94EE1B0D941B6B0D942A6B0D94206BFB
:1002D0000D941D6B0D94C46B0D94A46B0D94E61BD3
:1002E0000D940A2A0D94316B0D940D6B0D94B56B22
:1002F0000D94FF6A0D94EF6A0D94056B00000A0BD4
:1003000002090C0D0E0807030401000000000000A4
:1003100000000000000000000000000000000000DD
:10032000000000000000000012111000000000009A
:1003300000000000000000000000000000000000BD
:1003400000000102102020080810204010204080EA
:100350000201020108040201010204081020408089
:100360008040201008040201800402018040201017
:100370000804020108040201010204081020408060
:10038000010204081020408005050505070508083E
:100390000808020202020A0A08080404040401010F
:1003A0000101010101010303030303030303040724
:1003B00007070C0C0C0C0C0C0C0C020202020606BB
:1003C0000606060606060B0B0B0B0B0B0B0B0000B1
:1003D0002200250028002B002E00310034000201ED
:1003E0000000050108010B01000021002400270086
:1003F0002A002D0030003300010100000401070134
:100400000A01476F20746F3A00737570706F7274D1
:1004100000455230370058206F7220592073776999
:1004200074636820737475636B00455230370058ED
:10043000206F722059207377697463682062726F2D
:100440006B656E0045523036005A207377697463CD
:100450006820737475636B0045523035005A207301
:1004600077697463682062726F6B656E0045523005
:1004700034005361666574792063697263756974C9
:1004800000455230330048656174657220657272B0
:100490006F7200455230320054656D702073656E86
:1004A000736F722042454400455230310054656DEF
:1004B000702073656E736F72004552524F52202D3B
:1004C0002053544F5050454400756C74696D616BF6
:1004D00065722E636F6D2F0054696E6B65725F31AC
:1004E000382E31312E3100202000000000000000A5
:1004F000000080C07098ECE6F6F6E6EC9870C0005C
:10050000000000000000000000000000000080E08B
:1005100038CEF7F9FEFFFF03010103FFFFFEFDF3F5
:10052000CE38E0C0000000000080E0709CE7F9FEDB
:10053000FFFFFFFFFFFFFF3C18183CFFFFFFFFFF1F
:10054000FFFFFCFBE79C30E080071F30276F6F6FD9
:100550006F6F6F6F6F6F6F6F6E6E6F6F6F6F6F6FAD
:100560006F6F6F6F6F27301F070908E38191B1FF2D
:10057000B09080E007081C22414141221C07081C62
:100580003E7F7F7F3E1C07087F6E6C787267420754
:10059000081C224A524C201F07087F7F415F5F7F63
:1005A0007F07087F7F5155457F7F08080982F884BF
:1005B00084F8820907086070381E09080405082AB3
:1005C0002A2A2A2A070810387C1010101E07081C37
:1005D00022404F40221C05083E3E003E3E05087F5B
:1005E0007F3E1C080708492A1C7F1C2A490B080863
:1005F000080808080808083E1C080B08081C3E08E4
:10060000080808080808080708087C466F467C08A0
:1006100006080814220814220608221408221408C6
:100620000508263408163207087F5D4941495D7F79
:1006300007081C3E7F71773E1C07081C22414F496A
:10064000221C07080708137F1308070708404A55AC
:10065000404A55400508609E819E6080150606064A
:1006600006FEFEFEFEFC00000000000000FCFEFE98
:10067000FEFC0000000EFEFEFEFE0000E0FCFEFEA2
:10068000FCE0E0000000CECECE000000C0C0C0C044
:10069000C0C08000000000000080C0C080000000DA
:1006A0000000008080C0C0C0C0C0C0C0808000000A
:1006B000000006FEFEFEFE0000000080C0C0C0007C
:1006C00000000000008080C0C0C08080800000006A
:1006D00000C0C0C0C00080C0C0C0C080000000001A
:1006E000007FFFFFFFFF80000000000080FFFFFF92
:1006F000FFFF00000000FFFFFFFF000000FFFFFF03
:10070000FF0000000000FFFFFF00000081F1FFFF7D
:100710003F0F3FFFFCF0F0FCFF3F0F3FFFFEF88074
:10072000000000C1E1F1F17131010183FFFFFFFC25
:10073000000000FFFFFFFF000C3EFFFFF7C30100BA
:100740000000FCFEFF8703113131333F3F3F1E00A5
:100750000001FFFFFFFF070301010101000000008E
:100760000000010307070F0F0F0F0F0F0F070707F9
:100770000F0F06000000070F0F07000000070F0F04
:100780000700000000000F0F0F0000060F0F070109
:1007900000000001070F0F070100000001070F0F05
:1007A00006000003070F0F0E0E060703070F0F07C3
:1007B000000000070F0F0700000000030F0F0F06D7
:1007C0000000000307070F0E0E0E0E0E0E060000AF
:1007D00000000F0F0F0F0000000000000043004357
:1007E0002F0048656174696E67207072696E746865
:1007F00065616400507265763A200043414E43457E
:100800004C002073656300206D696E0020686F7571
:10081000720020686F7572730011150A00001915B7
:100820001200000609090600000000000000005F39
:1008300000000007000700147F147F14242A7F2A79
:100840001223130864623649552250000503000044
:10085000001C2241000041221C00082A1C2A080812
:10086000083E08080050300000080808080800602A
:1008700060000020100804023E5149453E00427FBE
:10088000400042615149462141454B311814127FC5
:100890001027454545393C4A49493001710905034E
:1008A0003649494936064949291E003636000000B6
:1008B0005636000000081422411414141414412266
:1008C0001408000201510906324979413E7E111196
:1008D000117E7F494949363E414141227F414122B3
:1008E0001C7F494949417F090901013E414151327B
:1008F0007F0808087F00417F41002040413F017F81
:10090000081422417F404040407F0204027F7F0460
:1009100008107F3E4141413E7F090909063E415191
:10092000215E7F09192946464949493101017F0164
:10093000013F4040403F1F2040201F7F2018207F64
:1009400063140814630304780403615149454300A8
:10095000007F4141020408102041417F0000040251
:100960000102044040404040000102040020545471
:1009700054787F48444438384444442038444448F8
:100980007F3854545418087E090102081454543C0A
:100990007F0804047800447D40002040443D00006E
:1009A0007F10284400417F40007C041804787C08B4
:1009B00004047838444444387C141414080814148B
:1009C000187C7C080404084854545420043F4440D4
:1009D000203C4040207C1C2040201C3C4030403CBF
:1009E00044281028440C5050503C4464544C44005B
:1009F0000836410000007F0000004136080008086A
:100A00002A1C08081C2A0808473120462569205A54
:100A10002569205825692059256900473238205A10
:100A200030205830205930006275696C64706C61F8
:100A300074652E006F662061646A757374696E67F1
:100A400020796F7572007468726F756768207468BA
:100A5000652070726F6365737300492077696C6CF1
:100A600020677569646520796F7500434F4E54495E
:100A70004E55450043414E43454C00746F20707203
:100A8000696E742069742100616E642070726573F0
:100A9000732074686520627574746F6E006F6E20C9
:100AA0007468652053442D636172640053656C65FE
:100AB00063742061207072696E742066696C6500D1
:100AC00032312F3231004C45542753205052494E79
:100AD000540052656164696E6720636172642E2EF2
:100AE0002E0032312F323100796F757220556C74BF
:100AF000696D616B6572322E2E2E007468617420F0
:100B000063616D65207769746800506C6561736519
:100B100020696E736572742053442D6361726400A2
:100B200032312F3231006D616B65206120334420FA
:100B30005072696E74210049276D20726561647975
:100B4000206C657427730032302F323100415245DA
:100B500020594F552052454144593F0066726F6DF0
:100B6000206E6F7A7A6C652E2E2E006D6174657220
:100B700069616C20657869747300507573682062D0
:100B80007574746F6E207768656E0031392F32315D
:100B900000434F4E54494E5545004C6F6164696E99
:100BA00067206D6174657269616C2E2E2E0031387C
:100BB0002F32310061626F76652074686520617242
:100BC000726F772E00796F757220556C74696D6144
:100BD0006B6572322C0066726F6D207468652072CE
:100BE000656172206F6600496E73657274206E6570
:100BF00077206D6174657269616C0031372F323115
:100C000000434F4E54494E5545006D6174657269FD
:100C1000616C206C6F6164696E67007072696E74DC
:100C2000686561642068656174696E6720666F72CB
:100C300000506C6561736520776169742C003136F2
:100C40002F32310053656C65637420746865206DC4
:100C50006174657269616C006974206973207573D1
:100C6000696E672E006F66206D6174657269616CD4
:100C7000006B6E6F77732077686174206B696E64A8
:100C8000004E6F7720796F757220556C74696D61B5
:100C90006B6572320031352F323100434F4E54496B
:100CA0004E554500697320746869732072696768DE
:100CB000743F00596F7520686176652063686F73B3
:100CC000656E0031342F323100594553004E4F00CC
:100CD000206173206D6174657269616C2C00313321
:100CE0002F3231004D4154455249414C00556C74EE
:100CF000696D616B6572322E00696E736572742066
:100D0000696E2074686973006D6174657269616CE5
:100D100020796F752077696C6C004E6578742C2093
:100D200073656C656374207468650031322F3231ED
:100D3000005245414459004D383400473120462582
:100D400069205825692059256900746F20696E73E0
:100D5000657274206D6174657269616C2E007468CF
:100D600065206E65787420737465702069730074F3
:100D70006865206275696C64706C617465004E6FA3
:100D8000772074686174207765206C6576656C6582
:100D9000640031312F323100434F4E54494E554596
:100DA0000074686520726967687420636F726E658D
:100DB000722E2E2E005265706561742074686973FE
:100DC00020666F720031302F323100434F4E54494C
:100DD0004E554500444F4E4500746865206C65666D
:100DE0007420636F726E65722E2E2E0052657065D0
:100DF0006174207468697320666F7200392F323114
:100E000000434F4E54494E55450062697420726547
:100E100073697374616E63652E00756E74696C20FE
:100E2000796F75206665656C2061006275696C6418
:100E3000706C61746520616E64206E6F7A7A6C6587
:100E400000536C6964652061207061706572206276
:100E500065747765656E00382F323100434F4E540C
:100E6000494E554500434F4E54494E554500473174
:100E700020462569205A30004731204625692058F0
:100E800025692059256900473120462569205A35B2
:100E900000746865206275696C64706C61746520AB
:100EA0006C6576656C2E00706170657220746F20C1
:100EB00066696E652D74756E65006E6F772075734B
:100EC000652061207368656574206F6600526570E7
:100ED000656174207468697320737465702C206276
:100EE000757400372F323100434F4E54494E5545EB
:100EF0000066726F6D20746865206275696C64703D
:100F00006C6174652E0069732061206D696C6C6979
:100F10006D657465722061776179007363726577BE
:100F20002074696C6C20746865206E6F7A7A6C65C9
:100F3000005475726E207269676874206275696CFE
:100F400064706C61746500362F323100434F4E542B
:100F5000494E554500473120462569205A30004703
:100F600031204625692058256920592569004731D7
:100F700020462569205A350066726F6D20746865B9
:100F8000206275696C64706C6174652E00697320F1
:100F900061206D696C6C696D657465722061776143
:100FA000790073637265772074696C6C207468656E
:100FB000206E6F7A7A6C65005475726E206C65666F
:100FC00074206275696C64706C61746500352F32D1
:100FD0003100434F4E54494E554500473120462578
:100FE00069205A300047312046256920582569205C
:100FF00059256900473120462569205A3500667217
:101000006F6D20746865206275696C64706C6174C2
:10101000652E0061206D696C6C696D657465722068
:101020006177617900756E74696C20746865206EF3
:101030006F7A7A6C6520697300526F7461746520F1
:1010400074686520627574746F6E00342F323100DD
:10105000434F4E54494E554500434F4E54494E550B
:101060004500473120462569205A256920582569C1
:101070002059256900676F696E6720746F20646F5F
:101080002074686174206E6F772E0061646A7573D6
:10109000746D656E74732C207765206172650077BE
:1010A00065206E65656420746F20646F20736F6DBA
:1010B00065004166746572207472616E73706F7240
:1010C000746174696F6E00332F323100434F4E5498
:1010D000494E554500473120462569205A2569006B
:1010E000612066697273742072756E2077697A6107
:1010F00072642E0077616C6B20796F752074687252
:101100006F756768006669727374207374617274B6
:10111000757020492077696C6C0042656361757356
:101120006520746869732069732074686500322FC4
:10113000323100434F4E54494E5545006275747428
:101140006F6E20746F20636F6E74696E75650055E5
:101150006C74696D616B65722120507265737320C8
:101160007468650073746172747570206F6620799D
:101170006F75720057656C636F6D6520746F2074B6
:10118000686520666972737400312F323100434FF5
:101190004E54494E5545004300432F00436C69634C
:1011A0006B20746F2072657475726E004275696C85
:1011B00064706C6174652074656D702E3A00430034
:1011C000432F00436C69636B20746F2072657475E4
:1011D000726E004E6F7A7A6C652074656D70657200
:1011E00061747572653A003F3F3F004578706572E3
:1011F000742066756E6374696F6E730041646A75FE
:101200007374206275696C64706C617465005365F9
:10121000742066616E207370656564004D6F76653D
:10122000206D6174657269616C00496E73657274DA
:10123000206D6174657269616C005261697365202B
:101240006275696C64706C617465004C6F7765726F
:10125000206275696C64706C61746500486F6D65BF
:101260002068656164004865617475702062756905
:101270006C64706C61746500486561747570206E93
:101280006F7A7A6C6500507265666572656E63652B
:1012900073003C2052455455524E002500432F0008
:1012A0004300432F0043003F3F3F00466163746F9C
:1012B00072792072657365740052756E74696D651C
:1012C0002073746174730056657273696F6E005099
:1012D0006F77657220627564676574005072696E1D
:1012E000742061726561004D6F74696F6E20736563
:1012F0007474696E67730052657472616374696FA8
:101300006E2073657474696E67730054656D7065E3
:1013100072617475726520636F6E74726F6C0048D1
:1013200065617465722074696D656F7574005363CF
:101330007265656E20636F6E747261737400536CB6
:101340006565702074696D6572005363726F6C6CB3
:101350002066696C656E616D657300436C69636BD3
:1013600020736F756E64004C454420736574746916
:101370006E6773005573657220696E74657266617D
:101380006365003C2052455455524E0054696E6BC3
:1013900065725F31382E31312E31006F6666007311
:1013A000006F6666202F20006D696E202F200025BB
:1013B0000044697361626C656400456E61626C65CE
:1013C00064005374616E646172640053686F727478
:1013D000207469636B004F66660025005374616E6C
:1013E00064617264204D6F6465004765656B204DD4
:1013F0006F6465003F3F3F004765656B204D6F643C
:1014000065003E005374616E64617264204D6F64C8
:1014100065003E003C2052455455524E00557365C0
:101420007220696E74657266616365003F3F3F00BC
:1014300020476C6F77207768656E20646F6E65005B
:10144000204F6E207768696C65207072696E7469D0
:101450006E670020416C77617973204F66660020CB
:10146000416C77617973204F6E00427269676874CE
:101470006E657373003C2052455455524E00250052
:1014800025004272696768746E657373004C454449
:1014900000203F3F3F004F6666003E0053686F727A
:1014A00074207469636B003E005374616E646172F2
:1014B000642062656570003E003C205245545552E0
:1014C0004E00436C69636B20736F756E64005363E9
:1014D000726F6C6C2066696C656E616D6573003E41
:1014E000004E6F207363726F6C6C696E67003E0014
:1014F0003C2052455455524E005363726F6C6C2021
:1015000066696C656E616D6573002500436C696387
:101510006B20746F2072657475726E005363726510
:10152000656E20636F6E7472617374003F3F3F009D
:10153000496E7665727420617869730041786973C9
:101540002073746570732F6D6D004D6F746F722012
:1015500043757272656E74004D61782E20617869F2
:101560007320737065656400416363656C657261C7
:1015700074696F6E003C2052455455524E004D4FD9
:1015800054494F4E0054696E6B65725F31382E318D
:10159000312E31004E6F76203137203230313820F5
:1015A00031363A33333A31330052657475726E0016
:1015B0006D00204D61743A003A005072696E746992
:1015C0006E673A003A004D616368696E65206F6E20
:1015D00020666F723A0052657475726E00746F20E7
:1015E00064656661756C743F00526573657420654F
:1015F000766572797468696E6700594553004E4F7D
:1016000000505245464552454E434553002500463D
:10161000616E207370656564004731205A34300074
:10162000414456414E43454400432F004300436C20
:1016300069636B20746F2072657475726E00526FEF
:101640007461746520746F206578747275646500C8
:101650004E6F7A7A6C652074656D70657261747511
:1016600072653A0047323800473238205A30004716
:101670003238205830205930004255494C442D7C96
:10168000504C41544500414456414E43454400525C
:10169000455455524E0054504C4100505000545047
:1016A0005520393541004350452B004E796C6F6E03
:1016B000005043004350450041425300504C41000C
:1016C0006C63645F6D6174657269616C5F72657390
:1016D00065745F64656661756C747300496D706FE5
:1016E00072742066726F6D205344004578706F727B
:1016F0007420746F20534400437573746F6D697A5E
:1017000065003C2052455455524E004C6F61647345
:1017100020616C6C206D6174657269616C7300533B
:101720006176657320616C6C206D617465726961AE
:101730006C73004D6F646966792074686520736509
:101740007474696E677300250046616E3A20004329
:101750000043002500466C6F773A006D6D003F3FF7
:101760003F0053746F7265206173207072657365FA
:101770007400466C6F7720250046616E00446961F5
:101780006D65746572004865617465642062756991
:101790006C64706C6174650054656D706572617421
:1017A000757265003C2052455455524E0025002567
:1017B000006D6D00430043200043200054656D70B0
:1017C000657261747572653A20003C20524554552B
:1017D000524E004300430054656D7065726174752C
:1017E0007265004D4154455249414C004E65772089
:1017F000707265736574003C2052455455524E001A
:10180000505245534554530025004D61746572692B
:10181000616C20666C6F7700250046616E207370E6
:10182000656564006D6D004D6174657269616C2061
:101830004469616D657465720043004275696C644A
:10184000706C6174652054656D702E004D41544577
:101850005249414C00696E204D4154455249414C1A
:101860002E54585400746F207468652053442063CC
:10187000617264005361766564206D61746572699C
:10188000616C73004F4B000A006469616D6574659B
:10189000723D000A00666C6F773D000A0066616E5B
:1018A0005F73706565643D000A006265645F74651E
:1018B0006D70657261747572653D000A003D00725D
:1018C000657472616374696F6E5F73706565645F80
:1018D000000A003D0072657472616374696F6E5F27
:1018E0006C656E6774685F000A003D0074656D701A
:1018F000657261747572655F000A0074656D70656C
:101900007261747572653D000A006E616D653D001F
:101910005B6D6174657269616C5D0A00526561643A
:10192000696E6720636172642E2E2E00506C6561B3
:10193000736520696E736572742063617264004E12
:101940006F2053442D434152442100696E76616CEF
:101950006964200066726F6D2074686520534420AE
:1019600063617264004C6F61646564206D617465CD
:101970007269616C73004F4B0072657472616374BD
:10198000696F6E5F73706565645F00726574726124
:101990006374696F6E5F6C656E6774685F00746511
:1019A0006D70657261747572655F006469616D6503
:1019B00074657200666C6F770066616E5F73706548
:1019C0006564006265645F74656D706572617475ED
:1019D00072650074656D7065726174757265004141
:1019E0006464696E67206D6174657269616C200062
:1019F0006E616D65005B6D6174657269616C5D003F
:101A000053746172742072656164206D61746572D3
:101A100069616C7300666F756E64206F6E20636120
:101A200072642E004E6F206D6174657269616C2066
:101A300066696C650052656164696E6720636172F6
:101A4000642E2E2E00506C6561736520696E73657F
:101A500072742063617264004E6F2053442D4341C1
:101A60005244210053656C6563746564206D617434
:101A7000657269616C3A004F4B004D4154455249C3
:101A8000414C00636F6D6573206F757420746865D9
:101A9000206E6F7A7A6C6500576169742074696C86
:101AA0006C206D6174657269616C005245414459E6
:101AB0000043414E43454C00466F72776172646942
:101AC0006E67206D6174657269616C0061626F762A
:101AD0006520746865206172726F772E00796F756A
:101AE00072206D616368696E652C0066726F6D208F
:101AF000746865206261636B73696465206F66005A
:101B0000496E73657274206E6577206D61746572BD
:101B100069616C0052454144590043414E43454C74
:101B2000006D6174657269616C20696E73657274B1
:101B3000696F6E00436F6F6C696E67206E6F7A7AA3
:101B40006C6520666F720048656174696E67206E0F
:101B50006F7A7A6C6520666F7200250046616E3A76
:101B60002000430043002500466C6F773A006D6DFE
:101B7000004D4154455249414C0052656D6F7665A8
:101B8000206D6174657269616C0052454144590071
:101B900043414E43454C00526576657273696E67EA
:101BA000206D6174657269616C00666F72206D6191
:101BB00074657269616C2072656D6F76616C00434B
:101BC0006F6F6C696E67206E6F7A7A6C650048651E
:101BD0006174696E67206E6F7A7A6C650043484164
:101BE0004E47450053455454494E475300524554BF
:101BF00055524E004D383420582059204500473169
:101C000020462569205825692059256900656368A3
:101C10006F3A004572726F723A0041424F5254005F
:101C200041424F52540054554E450054554E4500C4
:101C30004D4154455249414C004348414E474500AF
:101C40004D4154455249414C004348414E4745009F
:101C5000524553554D457C0050415553494E477CA4
:101C6000004241434B004241434B0054554E450016
:101C700054554E450041424F52547C0050415553FB
:101C8000457C004D3630312058257520592575206A
:101C90005A2575204C2575003F3F3F00536C656504
:101CA000702074696D6572004D6F7665206D61748A
:101CB000657269616C004C454420427269676874C2
:101CC0006E6573730052657472616374696F6E0040
:101CD0004D6174657269616C20666C6F7700466156
:101CE0006E207370656564004275696C64706C6128
:101CF00074652074656D702E0054656D7065726139
:101D000074757265005370656564003C20524554DB
:101D100055524E00250025002500432F0043004367
:101D20002F00430025003F3F3F00456E64206F6653
:101D3000207072696E74206C656E677468005265FD
:101D400074726163742073706565640052657472A7
:101D5000616374206C656E677468003C2052455462
:101D600055524E006D6D006D6D2F736563006D6D86
:101D7000006D6D00456E64206F66207072696E7430
:101D80002072657472616374006D6D2F73656300FA
:101D900052657472616374207370656564006D6D63
:101DA0000052657472616374206C656E67746800BC
:101DB00052455452414354494F4E002500427269E6
:101DC0006768746E6573730025004D617465726990
:101DD000616C20666C6F7700250046616E20737021
:101DE0006565640025005072696E742073706565C6
:101DF000640054554E45004300432F00436C696313
:101E00006B20746F2072657475726E004E6F7A7AF3
:101E10006C652074656D70657261747572650050D3
:101E200072696E742066696E6973686564005072C9
:101E3000696E74657220636F6F6C696E6720646F82
:101E4000776E00430043200068006D696E0054699E
:101E50006D6520004241434B20544F204D454E5567
:101E60000041626F7274696E672E2E2E0041626FA0
:101E7000727420746865207072696E743F005945F1
:101E800053004E4F00507265706172696E67207426
:101E90006F207072696E743A0048656174696E678C
:101EA0002075702E2E2E0054554E450041424F5243
:101EB00054002573207673202573006D617465725C
:101EC00069616C2E00666F722061206469666665C8
:101ED00072656E7400546869732066696C65206968
:101EE00073206372656174656400434F4E54494EBC
:101EF00055450043414E43454C0054696D65206C87
:101F00006566740054696D65206C65667420756E35
:101F10006B6E6F776E00432F0043004865617469F4
:101F20006E67206275696C64706C61746500432F24
:101F300000430048656174696E67005072696E7491
:101F4000696E673A0054554E45005041555345005F
:101F500066726F6D2074686520736C696365722E9C
:101F60000073657474696E6720776974682073659F
:101F70007474696E67006F76657272696465206D4E
:101F8000616368696E6500546869732066696C6591
:101F90002077696C6C00434F4E54494E55450043C1
:101FA000414E43454C003C204241434B003C2052B3
:101FB000455455524E00534420434152440047314A
:101FC00020463132303030205825692059256900AB
:101FD0003B464C41564F523A556C746947436F64C7
:101FE00065003B464C41564F523A556C7469474325
:101FF0006F6465004E6F2066696C657320666F754F
:102000006E6421004F4B004F4B0052656164696E56
:102010006720636172642E2E2E00506C65617365BB
:1020200020696E736572742063617264004E6F2064
:1020300053442D4341524421004E6F20696E666F18
:1020400020617661696C61626C65004E6F7A7A6CB2
:102050006520006D006D004D6174657269616C20D2
:102060000068006D696E0054696D6520003B4D5439
:102070005950453A003B4E4F5A5A4C455F444941EE
:102080004D455445523A003B4D4154455249414C0F
:102090003A003B54494D453A00466F6C6465720006
:1020A0006F66207072696E74696E67206172656117
:1020B000005472696564207072696E74696E67207D
:1020C0006F7574004552524F523A00524554555262
:1020D0004E20544F204D41494E00756C74696D611E
:1020E0006B65722E636F6D2F4552303800476F203D
:1020F000746F3A0072656164696E672053442D63A2
:1021000061726421004572726F72207768696C6534
:102110000052455455524E20544F204D41494E00D7
:102120001F001F2F001F004275696C64706C617482
:102130006520001F001F2F001F004E6F7A7A6C650C
:1021400020006F6666006F6E004275696C64706C8B
:102150006174653A20006F6666006F6E004E6F7A9C
:102160007A6C653A20004241434B004241434B00A8
:1021700052657475726E20746F206D61696E206D8A
:10218000656E7500434F4F4C00434F4F4C00436FFB
:102190006F6C20646F776E20616C6C005052494EFA
:1021A00054005052494E540053746172742070723E
:1021B000696E740050726568656174001F002F00BD
:1021C0001F002F004D4154455249414C005354418A
:1021D0005254004348414E4745004D4F5645005329
:1021E000455454494E475300414456414E4345449B
:1021F000005052494E540050524548454154004DFC
:1022000041494E54454E414E4345004D415445527F
:1022100049414C005052494E540057004578747261
:1022200075646572005761747461676520457874E0
:1022300072756465720057004275696C64706C61F8
:1022400074650057617474616765204275696C64D8
:10225000706C617465005700546F74616C00546F4A
:1022600074616C20506F7765722042756467657485
:10227000004241434B004241434B00436C69636B56
:1022800020746F2072657475726E0053544F5245FE
:102290000053746F7265206F7074696F6E730050B5
:1022A0006F77657220427564676574004B64004403
:1022B00065726976617469766520636F6566662EFE
:1022C000004B6900496E74656772616C20636F65CD
:1022D0006666696369656E74004B700050726F705A
:1022E0006F7274696F6E616C20636F6566662E0035
:1022F0004241434B004241434B00436C69636B20B6
:10230000746F2072657475726E004155544F00539E
:102310007461727420504944206175746F74756ED5
:10232000650053544F52450053746F7265205049F5
:10233000442073657474696E677300504944207358
:10234000657474696E67730045787472756465723C
:102350000043414E43454C0054696D656F757400F0
:102360006661696C65642100504944204175746F51
:1023700074756E650054656D706572617475726513
:1023800020746F6F2068696768006661696C6564B6
:102390002100504944204175746F74756E65007456
:1023A00068652073657474696E67732E00596F7564
:1023B0002063616E2073746F72650066696E697365
:1023C0006865642100504944204175746F74756ECE
:1023D0006500434F4E54494E5545001F2F001F00C6
:1023E0004275696C64706C617465004578747275CF
:1023F000646572001F2F001F002F002E00504944FB
:102400002074756E696E67004379636C6573007440
:10241000756E696E67206379636C6573001F005485
:10242000656D70657261747572650074756E696E44
:10243000672074656D7065726174757265004241E4
:10244000434B004241434B00436C69636B20746F04
:102450002072657475726E00535441525400537467
:1024600061727420504944206175746F74756E6593
:10247000005049442074756E65206F7074696F6EEA
:1024800073004578747275646572004275696C6496
:10249000706C617465004B640044657269766174A8
:1024A00069766520636F6566662E004B6900496E2C
:1024B00074656772616C20636F65666669636965E0
:1024C0006E74004B700050726F706F7274696F6E33
:1024D000616C20636F6566662E004275696C642DC1
:1024E0007C706C61746500504944206D6F646500B8
:1024F0004241434B004241434B00436C69636B20B4
:10250000746F2072657475726E004155544F00539C
:102510007461727420504944206175746F74756ED3
:10252000650053544F52450053746F7265205049F3
:10253000442073657474696E677300504944207356
:10254000657474696E677300504944206F66660055
:102550004558545255444552004255494C442D7CEF
:10256000504C4154450052455455524E006F6666DA
:102570000020736563004D61782E20706F7765725F
:1025800000506572696F64206F66206D61782E203F
:10259000706F776572006F666600206D696E00541B
:1025A000696D656F75740049646C652074696D654B
:1025B0006F7574004241434B004241434B00436CF2
:1025C00069636B20746F2072657475726E0053546A
:1025D0004F52450053746F7265206F7074696F6E4F
:1025E000730048656174657220636865636B006D94
:1025F0006D2F7300582F59204A65726B004D61781A
:102600002E20582F59204A65726B006D6D2F731E56
:1026100000416363656C00416363656C657261745E
:10262000696F6E004241434B004241434B00436C93
:1026300069636B20746F2072657475726E005354F9
:102640004F52450053746F72652073657474696EE0
:10265000677300416363656C65726174696F6E00D6
:102660006D6D2F730045004D61782E207370656588
:10267000642045006D6D2F73005A004D61782E2047
:102680007370656564205A006D6D2F730059004D9D
:1026900061782E2073706565642059006D6D2F730D
:1026A0000058004D61782E207370656564205800D5
:1026B0004241434B004241434B00436C69636B20F2
:1026C000746F2072657475726E0053544F524500DA
:1026D00053746F72652073657474696E6773004D0F
:1026E00061782E20537065656400450045787472EA
:1026F0007564657220286D4129005A005A2061785E
:10270000697320286D412900582F5900582F5920EE
:102710006178697320286D4129004241434B004292
:1027200041434B00436C69636B20746F2072657486
:1027300075726E0053544F52450053746F7265208A
:1027400073657474696E6773004D6F746F722043A4
:10275000757272656E74006D6D00456E64206C65F7
:102760006E67746800456E64206F66207072696ED3
:1027700074206C656E677468006D6D2F7300526510
:102780007472616374207370656564006D6D0052CE
:102790006574726163740052657472616374206C55
:1027A000656E677468004241434B004241434B00F1
:1027B000436C69636B20746F2072657475726E0070
:1027C00053544F52450053746F726520736574748F
:1027D000696E67730052657472616374696F6E200D
:1027E00073657474696E6773006E6F00796573004A
:1027F0003A00496E766572740045004578747275CA
:10280000646572005A005A00590059005800580077
:102810004241434B004241434B00436C69636B2090
:10282000746F2072657475726E0053544F52450078
:1028300053746F726520696E7665727420666C6180
:10284000677300496E76657274206178697300451C
:1028500000452073746570732F6D6D005A005A2007
:1028600073746570732F6D6D005900592073746512
:1028700070732F6D6D005800582073746570732F3E
:102880006D6D004241434B004241434B00436C6934
:10289000636B20746F2072657475726E0053544FB1
:1028A00052450053746F72652073746570732F6D99
:1028B0006D00417869732073746570732F6D6D00BE
:1028C0006D6D005A004D6178696D756D205A2063F9
:1028D0006F6F7264696E617465006D6D002D004DDF
:1028E0006178696D756D205920636F6F7264696ED0
:1028F000617465006D6D0059004D696E696D756D8F
:10290000205920636F6F7264696E617465006D6D2C
:10291000002D004D6178696D756D205820636F6FD3
:102920007264696E617465006D6D0058004D696E6A
:10293000696D756D205820636F6F7264696E617484
:1029400065004241434B004241434B00436C696385
:102950006B20746F2072657475726E0053544F5201
:10296000450053746F72652061786973206C696DDE
:10297000697473005072696E74206172656100251C
:1029800000476C6F77004C454420736C6565702080
:10299000676C6F77006F66660025004C43442073B8
:1029A0006C65657020636F6E74726173740053633D
:1029B0007265656E006F6666006D696E00536372C6
:1029C00065656E2074696D656F75740025004C45F2
:1029D0004420736C656570206272696768746E6507
:1029E0007373004C69676874006F6666006D696E8A
:1029F000004C45442074696D656F75740042414315
:102A00004B004241434B00436C69636B20746F2061
:102A100072657475726E0053544F52450053746F53
:102A20007265206F7074696F6E7300536C656570AA
:102A30002074696D65720047312046313230303084
:102A40002058256920592569006D6D00526F746109
:102A5000746520746F2065787472756465005265C2
:102A600073657420706F736974696F6E00436C696D
:102A7000636B202620686F6C6420746F2070756C07
:102A80006C001F001F2F001F2F001F004E6F7A7A4F
:102A90006C652000546F67676C65206865617465BC
:102AA00072004241434B004241434B00436C696317
:102AB0006B20746F2072657475726E0054554E45AC
:102AC0000054554E45004D6F7265206F7074696FEC
:102AD0006E73004D6F7665206D6174657269616C0F
:102AE000004D3834205830205930004D38342058AB
:102AF00030205930004731204631323030302058B4
:102B0000256920592569004D383420583020593026
:102B10000044697361626C652058592D7374657047
:102B2000706572730044697361626C652058592D39
:102B30007374657070657273004D6F76652068659B
:102B4000616420746F2066726F6E74004D6F7665DD
:102B5000206865616420746F2066726F6E7400482F
:102B60006F6D65206865616400486F6D65206865FC
:102B70006164004241434B004241434B00436C6956
:102B8000636B20746F2072657475726E0053656C90
:102B9000656374206F7074696F6E004D3834204522
:102BA0003000473238205830004732382059300042
:102BB0006D6D006D6D2F7300486F6D65205A20613B
:102BC000786973005A206178697320706F73697433
:102BD000696F6E005A004D6F7665205A20617869E2
:102BE0007300486F6D652059206178697300592022
:102BF0006178697320706F736974696F6E00590032
:102C00004D6F76652059206178697300486F6D6556
:102C100020582061786973005820617869732070AA
:102C20006F736974696F6E0058004D6F7665205838
:102C30002061786973004241434B004241434B009D
:102C4000436C69636B20746F2072657475726E00DB
:102C500020414C4C00486F6D6520616C6C206178A0
:102C60006573004D6F76652061786973003F3F3F63
:102C70000044697361626C6520737465707065727D
:102C800073005265636F766572207072696E7400AE
:102C900041646A757374205A20706F736974696F28
:102CA0006E004D6F76652061786973003C20524557
:102CB0005455524E004D383400457870657274207A
:102CC00066756E6374696F6E73006D6D005A0052A5
:102CD00065636F766572207072696E742066726FBC
:102CE0006D005265636F7665722068656967687408
:102CF0000043414E43454C00436C69636B20746F45
:102D00002072657475726E005052494E54005374AF
:102D1000617274207072696E74005265636F7665BB
:102D200072207072696E740041424F5254004142E9
:102D30004F52540041626F7274207072696E740059
:102D400054554E450054554E450054756E65206DE2
:102D5000656E7500202F20005A0052656164696E0F
:102D6000672066696C652E2E2E006D6D005A00740A
:102D70006865206275696C64706C617465006E6F63
:102D80007A7A6C6520746F7563686573004D6F7631
:102D900065205A20756E74696C20746865004D3822
:102DA0003420583020593000473120462569205AB8
:102DB0002569205825692059256900473238205A4D
:102DC00030205830205930006D6D005A0043414E7C
:102DD00043454C0053544F5245007468652062755A
:102DE000696C64706C617465006E6F7A7A6C6520D2
:102DF000746F7563686573004D6F7665205A207532
:102E00006E74696C20746865004D38342058302029
:102E100059300053746F7265205A206F666673656F
:102E200074006D6D005A00426162797374657020A0
:102E30005A2061786973006D6D00590042616279B2
:102E40007374657020592061786973006D6D005846
:102E500000426162797374657020582061786973EB
:102E6000004241434B004241434B00436C69636B5A
:102E700020746F2072657475726E0042616279739E
:102E800074657070696E67001F001F2F001F00427D
:102E900075696C64706C6174652000250046616E14
:102EA000001F001F2F001F004E6F7A7A6C652000F4
:102EB00025006D6D2F73005370656564200025003B
:102EC0006D6D1D2F7300466C6F7720005A004261B4
:102ED00062797374657070696E6700476F746F20F4
:102EE00070616765203200436F6E74726F6C206F83
:102EF0007074696F6E7300546F67676C65204C4522
:102F000044006D6D2F7300582F59204A65726B0075
:102F10004D61782E20582F59204A65726B006D6DD7
:102F20002F731E00416363656C00416363656C65CC
:102F3000726174696F6E006D6D2F730052657472EB
:102F4000616374207370656564006D6D0052657413
:102F5000726163740052657472616374206C656E93
:102F600067746800546F67676C65204C4544004384
:102F70006F6E74726F6C206F7074696F6E73004740
:102F80006F746F2070616765203100555342206374
:102F90006F6D6D756E69636174696F6E2E2E2E0094
:102FA00048656174696E67206275696C64706C61F4
:102FB00074650048656174696E67206E6F7A7A6C1B
:102FC000650050617573696E672E2E2E00436C6923
:102FD000636B20746F20636F6E74696E75652E2E3F
:102FE0002E005061757365642E2E2E0025005061F1
:102FF0007573696E672E2E2E005061757365642E91
:103000002E2E001F001F2F001F004275696C647078
:103010006C61746520001F001F2F001F004E6F7A27
:103020007A6C65200041424F52540041424F525445
:103030000041626F7274207072696E740054554E54
:10304000450054554E450054756E65206D656E758E
:10305000001F002F001F002F0025004865617469C4
:103060006E672075702E2E2E2000436865636B20DE
:103070006665656465722E005072696E74207061B9
:10308000757365642E006973737565206465746576
:10309000637465642E004D6174657269616C20749F
:1030A00072616E73706F727400434F4E54494E5587
:1030B00045005072696E74207061757365642E20CE
:1030C000436865636B206665656465722E004D61BB
:1030D00074657269616C207472616E73706F727462
:1030E0002069737375652064657465637465642E07
:1030F000006563686F3A004572726F723A005072F1
:10310000696E7465722073746F7070656420647585
:103110006520746F206572726F72732E2046697815
:1031200020746865206572726F7220616E6420750C
:103130007365204D39393920746F2072657374615D
:1031400072742E202854656D706572617475726595
:103150002069732072657365742E2053657420692D
:10316000742061667465722072657374617274692B
:103170006E6729005072696E7465722068616C74A4
:1031800065642E206B696C6C28292063616C6C650A
:103190006421004D32313820496E76616C696420BB
:1031A000657874727564657220004D31303920493C
:1031B0006E76616C696420657874727564657220DE
:1031C000004D31303520496E76616C696420657838
:1031D00074727564657220004D31303420496E760A
:1031E000616C696420657874727564657220002072
:1031F000403A002042403A00202F0020423A00206E
:103200002F0020543A006F6B00456E6473746F702A
:10321000207374696C6C20707265737365642061CF
:1032200066746572206261636B696E67206F6666A3
:103230002E20456E6473746F7020737475636B3FDA
:1032400000456E6473746F70206E6F7420707265C9
:103250007373656420616674657220686F6D696E52
:103260006720646F776E2E20456E6473746F7020D4
:1032700062726F6B656E3F00456E6473746F702091
:103280006E6F742070726573736564206166746517
:103290007220686F6D696E6720646F776E2E2045AF
:1032A0006E6473746F702062726F6B656E3F002284
:1032B00000556E6B6E6F776E20636F6D6D616E641F
:1032C0003A202200456C656374726F6E6963735FA8
:1032D000746573740041637469766520457874720F
:1032E000756465723A2000496E76616C6964206588
:1032F0007874727564657200540020423A30002080
:10330000423A31006F6B20523A00726573756D65F9
:103310000020643A0020693A0020703A006F6B0088
:1033200020643A0020693A0020703A006F6B002256
:1033300000556E6B6E6F776E20636F6D6D616E649E
:103340003A2022006F70656E00545249474745523B
:103350004544007A5F6D61783A20006F70656E00B9
:1033600054524947474552454400795F6D61783A68
:1033700020006F70656E00545249474745524544DE
:1033800000785F6D696E3A20005265706F727469E3
:103390006E6720656E6473746F70207374617475EA
:1033A00073004649524D574152455F4E414D453A93
:1033B0004D61726C696E20556C74696D616B6572DC
:1033C000323B20537072696E7465722F6772626C43
:1033D000206D617368757020666F722067656E3648
:1033E000204649524D574152455F55524C3A6874F8
:1033F00074703A2F2F6769746875622E636F6D2F32
:10340000556C74696D616B65722050524F544F4317
:103410004F4C5F56455253494F4E3A312E30204D56
:10342000414348494E455F545950453A556C74697B
:103430006D616B65722045585452554445525F4347
:103440004F554E543A310A00453A005A3A00593A1B
:103450000020436F756E7420583A2000453A005A98
:103460003A00593A00583A003F0020573A0025697F
:10347000206D696E2C2025692073656300456E649C
:103480002066696C65206C69737400426567696EBB
:103490002066696C65206C69737400726573756D64
:1034A0006500706175736500256920686F757273BA
:1034B000202569206D696E7574657300446F6E65B3
:1034C000207072696E74696E672066696C65006F42
:1034D0006B00526573656E643A20005072696E74B9
:1034E00065722073746F70706564206475652074F4
:1034F0006F206572726F72732E204669782074682F
:1035000065206572726F7220616E6420757365202C
:103510004D39393920746F20726573746172742E5D
:10352000202854656D7065726174757265206973C9
:103530002072657365742E20536574206974206150
:10354000667465722072657374617274696E67293E
:10355000004E6F204C696E65204E756D626572205D
:103560007769746820636865636B73756D2C204C94
:10357000617374204C696E653A20004E6F20436879
:1035800065636B73756D2077697468206C696E650F
:10359000206E756D6265722C204C617374204C69CD
:1035A0006E653A2000636865636B73756D206D69A5
:1035B000736D617463682C204C617374204C696E68
:1035C000653A20004C696E65204E756D626572200B
:1035D0006973206E6F74204C617374204C696E6542
:1035E000204E756D6265722B312C204C61737420F6
:1035F0004C696E653A20004D313130002020506C0E
:10360000616E6E6572427566666572427974657345
:103610003A20002046726565204D656D6F72793ADB
:1036200020004E6F76203137203230313800436F22
:103630006D70696C65643A200054696E6B65725FE9
:1036400031382E31312E3100207C20417574686F65
:10365000723A20004E6F76203137203230313820D8
:1036600031363A33333A313400204C61737420558B
:103670007064617465643A2000312E302E30004D44
:1036800061726C696E200020536F66747761726599
:1036900020526573657400205761746368646F67B6
:1036A000205265736574002042726F776E206F75CB
:1036B00074205265736574002045787465726E617C
:1036C0006C20526573657400506F77657255700099
:1036D0007374617274002200656E717565696E673E
:1036E000202200446F6E6520736176696E672066E4
:1036F000696C652E006F6B004D3239002F2F6163AE
:1037000074696F6E3A00FF01010000E0400000E0C4
:10371000400000E0406563686F3A004572726F7266
:103720003A0000002110422063308440A550C6605A
:10373000E770088129914AA16BB18CC1ADD1CEE16E
:10374000EFF13112100273325222B5529442F772E5
:10375000D662399318837BB35AA3BDD39CC3FFF3BE
:10376000DEE36224433420040114E664C774A444F5
:1037700085546AA54BB528850995EEE5CFF5ACC50E
:103780008DD55336722611163006D776F6669556C5
:10379000B4465BB77AA719973887DFF7FEE79DD75E
:1037A000BCC7C448E5588668A77840086118022855
:1037B0002338CCC9EDD98EE9AFF9488969990AA9AE
:1037C0002BB9F55AD44AB77A966A711A500A333A25
:1037D000122AFDDBDCCBBFFB9EEB799B588B3BBBFE
:1037E0001AABA66C877CE44CC55C222C033C600CB5
:1037F000411CAEED8FFDECCDCDDD2AAD0BBD688D4E
:10380000499D977EB66ED55EF44E133E322E511E04
:10381000700E9FFFBEEFDDDFFCCF1BBF3AAF599F9D
:10382000788F8891A981CAB1EBA10CD12DC14EF13D
:103830006FE18010A100C230E320045025404670A3
:103840006760B9839893FBA3DAB33DC31CD37FE3CE
:103850005EF3B1029012F322D232354214527762F3
:103860005672EAB5CBA5A89589856EF54FE52CD59E
:103870000DC5E234C324A014810466744764245443
:103880000544DBA7FAB79987B8975FE77EF71DC7AE
:103890003CD7D326F2369106B01657667676154693
:1038A00034564CD96DC90EF92FE9C899E9898AB9FE
:1038B000ABA94458654806782768C018E1088238E3
:1038C000A3287DCB5CDB3FEB1EFBF98BD89BBBAB0E
:1038D0009ABB754A545A376A167AF10AD01AB32A33
:1038E000923A2EFD0FED6CDD4DCDAABD8BADE89D5E
:1038F000C98D267C076C645C454CA23C832CE01C83
:10390000C10C1FEF3EFF5DCF7CDF9BAFBABFD98FED
:10391000F89F176E367E554E745E932EB23ED10ED2
:10392000F01E7C3C3E5E2B3D3F2F5B5D3B2C2A22F4
:103930005C0020746F6F206C6F6E67206578747206
:103940007573696F6E2070726576656E746564005C
:1039500020636F6C6420657874727573696F6E2074
:1039600070726576656E746564006563686F3A00B1
:10397000205A3A0020593A0020583A00656E647384
:10398000746F7073206869743A200024F4D4305046
:10399000C38E20C2A24017828B7011127A910D81C2
:1039A0006CD90AA861E108C7586607615143061E31
:1039B0004B5D05C145A7041A411104093D980371E7
:1039C0003931034036DB0265339102D43054028032
:1039D0002E1D02632CEE01752AC501B028A001102E
:1039E0002781018F2564012B244B01E0223401AC97
:1039F000211F018D200D01801FFC00841EED00970A
:103A00001DDF00B81CD200E61BC600201BBC0064F2
:103A10001AB200B219A8000A19A0006A189900D1B8
:103A200017910040178B00B516840031167E00B345
:103A30001579003A157300C7146F0058146A00EE28
:103A40001366008813630025135E00C7125B006CC9
:103A500012570015125400C111510070114F00216E
:103A6000114B00D61049008D10470046104400024B
:103A7000104200C00F4000800F3E00420F3C000685
:103A80000F3B00CB0E3800930E37005C0E3500273D
:103A90000E3400F30D3200C10D3100900D30006086
:103AA0000D2E00320D2D00050D2C00D90C2B00AE73
:103AB0000C2900850C29005C0C2700350C27000E12
:103AC0000C2600E80B2400C40B2400A00B23007D6F
:103AD0000B23005A0B2100390B2100180B2000F892
:103AE0000A1F00D90A1E00BB0A1E009D0A1D008085
:103AF0000A1D00630A1C00470A1B002C0A1B001148
:103B00000A1A00F7091A00DD091900C4091900ABE7
:103B1000091900920917007B091800630917004C66
:103B200009160036091600200916000A091500F5C5
:103B3000081500E0081400CC081400B8081400A40C
:103B4000081400900813007D0812006B0813005839
:103B50000812004608120034081100230811001250
:103B600008110001081100F0071000E0071000D054
:103B7000071000C0071000B0070F00A10710009148
:103B8000070E0083070F0074070F0065070E00572C
:103B9000070E0049070E003B070D002E070E002000
:103BA000070D0013070D0006070D00F9060C00EDC8
:103BB000060D00E0060C00D4060C00C8060C00BC84
:103BC000060C00B0060C00A4060B0099060C008D34
:103BD000060B0082060B0077060B006C060B0061DB
:103BE000060A0057060B004C060A0042060A003877
:103BF000060A002E060A0024060A001A060A001009
:103C000006090007060A00FD050900F4050900EB96
:103C1000050900E2050900D9050900D0050900C71A
:103C2000050900BE050900B5050800AD050800A599
:103C30000509009C050800940508008C050800840F
:103C40000508007C050800740508006C0507006580
:103C50000508005D050700560508004E05070047EA
:103C60000507004005080038050700310507002A50
:103C7000050700230507001C050600160507000FB1
:103C80000507000805060002050700FB040600F50D
:103C9000040700EE040600E8040600E2040700DB67
:103CA000040600D5040600CF040600C9040600C3BC
:103CB000040600BD040600B7040600B1040500AC0C
:103CC000040600A6040600A00405009B0406009557
:103CD000040500900406008A0405008504050080A0
:103CE0000406007A04050075040500700405006BE5
:103CF00004050066040500610405005C0405005726
:103D0000040500520405004D040500480405004365
:103D10000405003E0404003A0405003504050030A3
:103D20000404002C04050027040400230405001EDD
:103D30000404001A04040016040500110404000D14
:103D4000040400090405000404040000040400FC49
:103D5000030400F8030400F4030400F0030400EC7F
:103D6000030400E8030400E4030400E0030400DCAF
:103D7000030400D8030400D4030400D0030400CCDF
:103D8000030400C8030300C503030024F404D9207E
:103D90001BC40C5C0E9804C4095F0265077101F432
:103DA00005F900FB04B30048048700C1036900580B
:103DB00003550003034500BE023A0084023100535C
:103DC000022A002902250004022000E4011C00C888
:103DD000011900AF0117009801140084011300714C
:103DE0000110006101100051010E0043010D003669
:103DF000010B002B010B0020010B00150109000C29
:103E000001090003010800FB000800F3000800EBB3
:103E1000000700E4000600DE000600D8000600D21D
:103E2000000600CC000500C7000500C2000500BD6B
:103E3000000400B9000400B5000400B1000400ADA6
:103E4000000400A9000400A5000300A20003009FD5
:103E50000004009B000300980003009500020093FB
:103E6000000300900003008D0002008B0003008817
:103E70000002008600020084000300810002007F2F
:103E80000002007D0002007B000200790002007742
:103E9000000100760002007400020072000100714F
:103EA0000002006F0002006D0001006C0002006A59
:103EB0000001006900020067000100660001006562
:103EC0000001006400020062000100610001006066
:103ED0000001005F0002005D0001005C0001005B6A
:103EE0000001005A0001005900010058000100576C
:103EF000000100560001005500010054000100536C
:103F00000000005300010052000100510001005068
:103F10000001004F0001004E0000004E0001004D66
:103F20000001004C0001004B0000004B0001004A62
:103F3000000100490001004800000048000100475E
:103F40000001004600000046000100450000004559
:103F50000001004400010043000000430001004252
:103F6000000000420001004100000041000100404B
:103F70000001003F0000003F0001003E0000003E45
:103F80000001003D0000003D0001003C0000003C3D
:103F90000000003C0001003B0000003B0001003A33
:103FA0000000003A0001003900000039000100382B
:103FB0000000003800000038000100370000003722
:103FC0000001003600000036000000360001003518
:103FD000000000350000003500010034000000340E
:103FE0000000003400010033000000330000003303
:103FF00000010032000000320000003200010031F8
:1040000000000031000000310001003000000030ED
:10401000000000300001002F0000002F0000002FE2
:104020000000002F0001002E0000002E0000002ED6
:104030000001002D0000002D0000002D0000002DCB
:104040000001002C0000002C0000002C0000002CBF
:104050000001002B0000002B0000002B0000002BB3
:104060000001002A0000002A0000002A0000002AA7
:10407000000100290000002900000029000000299B
:10408000000000290001002800000028000000288E
:104090000000002800000028000100270000002781
:1040A0000000002700000027000000270001002674
:1040B0000000002600000026000000260000002668
:1040C000000100250000002500000025000000255B
:1040D000000000250000002500010024000000244D
:1040E0000000002400000024000000240001002340
:1040F0000000002300000023000000230000002334
:104100000000002300000023000100220000002224
:104110000000002200000022000000220000002217
:10412000000100210000002100000021000000210A
:1041300000000021000000210000002100010020FB
:1041400000000020000000200000002000000020EF
:104150000000002000000020000000200001001FDF
:104160000000001F0000001F0000001F0000001FD3
:104170000000001F0000001F0001001E0000001EC4
:104180000000001E0000001E0000006563686F3A1A
:10419000003A20457874727564657220737769748B
:1041A00063686564206F66662E204D494E54454D08
:1041B00050207472696767657265642021003A2037
:1041C0004578747275646572207377697463686585
:1041D00064206F66662E204D415854454D50207422
:1041E000726967676572656420210054656D70654A
:1041F00072617475726520686561746564206265BA
:1042000064207377697463686564206F66662E2026
:104210004D415854454D5020747269676765726509
:104220006420212100202D20496E76616C69642074
:104230006578747275646572206E756D6265722042
:104240002100504944204175746F74756E6520617A
:10425000626F727465642E00504944204175746F1A
:1042600074756E652066696E697368656421205097
:10427000757420746865204B702C204B6920616E2A
:1042800064204B6420636F6E7374616E7473206975
:104290006E746F20436F6E66696775726174696FC3
:1042A0006E2E6800504944204175746F74756E65B8
:1042B000206661696C6564212074696D656F757431
:1042C0000020403A006F6B20543A006F6B20423A56
:1042D00000504944204175746F74756E65206661A5
:1042E000696C6564212054656D70657261747572C6
:1042F0006520746F6F206869676800204B643A20FE
:1043000000204B693A2000204B703A200020436C7B
:1043100061737369632050494420002054753A202A
:1043200000204B753A2000206D61783A2000206D06
:10433000696E3A200020643A200020626961733A75
:104340002000504944204175746F74756E65207368
:104350007461727400504944204175746F74756EB5
:1043600065206661696C65642E2042616420657811
:10437000747275646572206E756D6265722E00458B
:1043800072726F723A000000000018070100A8075F
:10439000140030082800B8083C0038095000C00953
:1043A0006400480A7800C80A8C00480BA000C80BBB
:1043B000B400480CC800C80CDC00400DF000C00D73
:1043C0000401380E1801B00E2C01280F4001A00F77
:1043D00054011810680188107C01001190013013FD
:1043E000F401481558024017BC0228192003F01A9E
:1043F0008403A81CE803401E4C0443616E6E6F7476
:1044000020656E746572207375626469723A20006B
:104410004D3234004D3233202573006175746F25A1
:10442000692E67006572726F722077726974696EA7
:104430006720746F2066696C650043617264206553
:1044400072726F723A004E6F74205344207072691A
:104450006E74696E67002F005344207072696E7429
:10446000696E67206279746520002E0044656C6572
:1044700074696F6E206661696C65642C2046696C96
:10448000653A200046696C652064656C65746564F6
:104490003A002E006F70656E206661696C65642C51
:1044A0002046696C653A200057726974696E67200E
:1044B000746F2066696C653A20002E006F70656E1F
:1044C000206661696C65642C2046696C653A200041
:1044D0002E006F70656E206661696C65642C2046E5
:1044E000696C653A200046696C652073656C65638C
:1044F000746564002053697A653A200046696C65EA
:10450000206F70656E65643A20002E006F70656ED6
:10451000206661696C65642C2046696C653A2000F0
:1045200053442063617264206F6B006F70656E523C
:104530006F6F74206661696C656400766F6C756D71
:10454000652E696E6974206661696C656400534408
:1045500020696E6974206661696C002F002F00432A
:10456000616E6E6F74206F70656E20737562646922
:1045700072006563686F3A004572726F723A004864
:10458000617264636F6465642044656661756C7410
:104590002053657474696E6773204C6F6164656441
:1045A00000563031300053746F7265642073657447
:1045B00074696E67732072657472696576656400EC
:1045C0002044002049002020204D3330312050006D
:1045D0005049442073657474696E67733A00205AB9
:1045E0000020590020204D323036205800486F6D91
:1045F00065206F666673657420286D6D293A00200A
:104600004500205A0020580020420020540020205D
:104610004D323035205300416476616E636564200D
:104620007661726961626C65733A20533D4D696EC3
:1046300020666565647261746520286D6D2F73292D
:104640002C20543D4D696E2074726176656C206635
:104650006565647261746520286D6D2F73292C2047
:10466000423D6D696E696D756D207365676D656E30
:10467000742074696D6520286D73292C20583D6D58
:104680006178696D756D205859206A65726B2028B4
:104690006D6D2F73292C20205A3D6D6178696D75E1
:1046A0006D205A206A65726B20286D6D2F73292C3E
:1046B0002020453D6D6178696D756D2045206A65E6
:1046C000726B20286D6D2F73290020540020204D1F
:1046D000323034205300416363656C6572617469E4
:1046E0006F6E3A20533D616363656C6572617469F6
:1046F0006F6E2C20543D7265747261637420616327
:1047000063656C65726174696F6E00204500205AA4
:104710000020590020204D3230312058004D617862
:10472000696D756D20416363656C65726174696F55
:104730006E20286D6D2F7332293A00204500205AD3
:104740000020590020204D3230332058004D617830
:10475000696D756D20666565647261746573202886
:104760006D6D2F73293A00204500205A0020590012
:1047700020204D39322058005374657073207065C5
:104780007220756E69743A0053657474696E67734C
:104790002053746F726564006563686F3A00544516
:1047A00053540D0A000D0A00556E6B6E6F776E2024
:1047B000636F6D6D616E643A20000D0A003F005416
:1047C000696E6B65725F31382E31312E31004E418A
:1047D0004E494E495459494E46CDCCCC3D0AD7237B
:1047E0003C17B7D13877CC2B329595E6241FB14FC3
:1047F0000A000020410000C84200401C4620BCBE08
:104800004CCA1B0E5AAEC59D7400BDAA6E01600154
:1048100011241FBECFEFD1E2DEBFCDBF00E00CBF41
:1048200013E0A0E0B2E0E0E9F2EF02E00BBF02C06B
:1048300007900D92AE34B107D9F727E1AEE4B3E0AB
:1048400001C01D92AA3FB207E1F714E2C7E0D4E22B
:1048500000E006C021970109802FFE010F9422710C
:10486000C530D10780E00807A9F70F941B6C0D94A1
:1048700036790C9400001F920F920FB60F921124FC
:104880002F933F938F939F93AF93BF9380914F0349
:1048900090915003A0915103B091520330914E0377
:1048A00023E0230F2D3720F40196A11DB11D05C073
:1048B00026E8230F0296A11DB11D20934E0380937D
:1048C0004F0390935003A0935103B09352038091F0
:1048D000530390915403A0915503B0915603019650
:1048E000A11DB11D8093530390935403A0935503CE
:1048F000B0935603BF91AF919F918F913F912F91AC
:104900000F900FBE0F901F9018952FB7F8946091DD
:104910004F037091500380915103909152032FBF28
:1049200008953FB7F8948091530390915403A09158
:104930005503B091560326B5A89B05C02F3F19F02B
:104940000196A11DB11D3FBFBA2FA92F982F88270F
:10495000820F911DA11DB11DBC01CD0142E0660F6A
:10496000771F881F991F4A95D1F708958F929F92BC
:10497000AF92BF92CF92DF92EF92FF926B017C01D8
:10498000D0DF4B015C01C114D104E104F104F1F06A
:1049900093D0C7DFDC01CB0188199909AA09BB09AB
:1049A000883E9340A105B10570F321E0C21AD108F9
:1049B000E108F10888EE880E83E0981EA11CB11C66
:1049C000C114D104E104F10421F7DDCFFF90EF9091
:1049D000DF90CF90BF90AF909F908F9008958230DE
:1049E000910538F0880F991F880F991F0597019737
:1049F000F1F70895789484B5826084BD84B58160B0
:104A000084BD85B5826085BD85B5816085BDEEE6D6
:104A1000F0E0808181608083E1E8F0E010828081B5
:104A200082608083808181608083E0E8F0E0808123
:104A300081608083E1EBF0E0808184608083E0EB43
:104A4000F0E0808181608083E1E9F0E08081826034
:104A50008083808181608083E0E9F0E080818160F3
:104A60008083E1EAF0E080818260808380818160E0
:104A70008083E0EAF0E0808181608083E1E2F1E020
:104A8000808182608083808181608083E0E2F1E0C8
:104A9000808181608083EAE7F0E0808184608083A8
:104AA0008081826080838081816080838081806852
:104AB00080831092C100089508951F93CF93DF93D0
:104AC000182FEB0161E016D1209711F460E004C0CB
:104AD000CF3FD10531F461E0812FDF91CF911F915C
:104AE00045C1E12FF0E0E450FD4FE4914E2F50E03E
:104AF000FA013197E231F10508F09DC08827EE58A0
:104B0000FF4F8F4F0D94227184B5806884BDC7BD5F
:104B100097C084B5806284BDC8BD92C0809180007A
:104B2000806880938000D0938900C093880088C0FB
:104B300080918000806280938000D0938B00C0932E
:104B40008A007EC080918000886080938000D0932E
:104B50008D00C0938C0074C08091B00080688093F9
:104B6000B000C093B3006CC08091B00080628093AD
:104B7000B000C093B40064C08091900080688093BE
:104B80009000D0939900C09398005AC080919000F3
:104B9000806280939000D0939B00C0939A0050C095
:104BA00080919000886080939000D0939D00C09386
:104BB0009C0046C08091A00080688093A0008091F6
:104BC000A0008F7B8093A000D093A900C093A80081
:104BD00037C08091A00080628093A000D093AB008A
:104BE000C093AA002DC08091A00088608093A0008F
:104BF000D093AD00C093AC0023C0809120018068A9
:104C000080932001D0932901C093280119C080917D
:104C10002001806280932001D0932B01C0932A0150
:104C20000FC080912001886080932001D0932D01D6
:104C3000C0932C0105C0C038D1050CF04CCF46CF35
:104C4000DF91CF911F91089590E0FC013197E231FF
:104C5000F10508F04EC08827EC57FF4F8F4F0D9499
:104C60002271809180008F7703C0809180008F7DBA
:104C700080938000089580918000877FF9CF84B56C
:104C80008F7702C084B58F7D84BD08958091B00078
:104C90008F7703C08091B0008F7D8093B00008951E
:104CA000809190008F7707C0809190008F7D03C026
:104CB00080919000877F8093900008958091A0005C
:104CC0008F7707C08091A0008F7D03C08091A000E6
:104CD000877F8093A0000895809120018F7707C07F
:104CE000809120018F7D03C080912001877F809378
:104CF00020010895CF93DF9390E0FC01EE5BFC4F21
:104D00002491FC01E857FC4F8491882361F190E0E5
:104D1000880F991FFC01E851FC4FC591D491FC010B
:104D2000E253FC4FA591B491611109C09FB7F8946B
:104D30008881209582238883EC912E230BC06230DA
:104D400061F49FB7F8943881822F809583238883FC
:104D5000EC912E2B2C939FBF06C08FB7F894E8815F
:104D60002E2B28838FBFDF91CF9108951F93CF9370
:104D7000DF93282F30E0F901E450FD4F8491F901D1
:104D8000EE5BFC4FD491F901E857FC4FC491CC2362
:104D9000C1F0162F811158DFEC2FF0E0EE0FFF1F4E
:104DA000E253FC4FA591B4918FB7F894111105C04F
:104DB0009C91ED2FE095E92302C0EC91ED2BEC9353
:104DC0008FBFDF91CF911F91089508951F920F9289
:104DD0000FB60F9211240BB60F922F933F934F9360
:104DE0005F936F937F938F939F93AF93BF93EF9353
:104DF000FF93E0910E02F0910F021995FF91EF9150
:104E0000BF91AF919F918F917F916F915F914F91E2
:104E10003F912F910F900BBE0F900FBE0F901F90E0
:104E200018951F920F920FB60F9211240BB60F9286
:104E30002F933F934F935F936F937F938F939F93A2
:104E4000AF93BF93EF93FF93E0911002F0911102A3
:104E50001995FF91EF91BF91AF919F918F917F91A4
:104E60006F915F914F913F912F910F900BBE0F90DB
:104E70000FBE0F901F9018951F920F920FB60F92B2
:104E800011240BB60F922F933F934F935F936F9321
:104E90007F938F939F93AF93BF93EF93FF93E09193
:104EA0001202F09113021995FF91EF91BF91AF910A
:104EB0009F918F917F916F915F914F913F912F9132
:104EC0000F900BBE0F900FBE0F901F9018951F9262
:104ED0000F920FB60F9211240BB60F922F933F93A0
:104EE0004F935F936F937F938F939F93AF93BF93F2
:104EF000EF93FF93E0911402F09115021995FF9141
:104F0000EF91BF91AF919F918F917F916F915F9141
:104F10004F913F912F910F900BBE0F900FBE0F90AE
:104F20001F9018951F920F920FB60F9211240BB677
:104F30000F922F933F934F935F936F937F938F9332
:104F40009F93AF93BF93EF93FF93E0910A02F09189
:104F50000B021995FF91EF91BF91AF919F918F91A6
:104F60007F916F915F914F913F912F910F900BBE69
:104F70000F900FBE0F901F9018951F920F920FB6B3
:104F80000F9211240BB60F922F933F934F935F9381
:104F90006F937F938F939F93AF93BF93EF93FF9301
:104FA000E0910C02F0910D021995FF91EF91BF91E4
:104FB000AF919F918F917F916F915F914F913F91B1
:104FC0002F910F900BBE0F900FBE0F901F90189552
:104FD0001F920F920FB60F9211240BB60F922F93C0
:104FE0003F934F935F936F937F938F939F93AF9371
:104FF000BF93EF93FF93E0911602F091170219957A
:10500000FF91EF91BF91AF919F918F917F916F91A0
:105010005F914F913F912F910F900BBE0F900FBE5C
:105020000F901F9018951F920F920FB60F92112498
:105030000BB60F922F933F934F935F936F937F9392
:105040008F939F93AF93BF93EF93FF93E0911802D9
:10505000F09119021995FF91EF91BF91AF919F9136
:105060008F917F916F915F914F913F912F910F9011
:105070000BBE0F900FBE0F901F901895CF92DF922E
:10508000EF92FF920F931F93CF93DF93CDB7DEB7CD
:105090002A970FB6F894DEBF0FBECDBF88E89FEF0A
:1050A00090938C0380938B030E944833811102C03C
:1050B000109291034091910388E0840F405E682F25
:1050C0000E944D330E9465320E947C394BE556E0C8
:1050D00066E180E00E94C13A68ED74E086E30E94D8
:1050E0005E378091910381508335C8F00E946B3206
:1050F00080917003811149C02091910330E0220F0B
:10510000331F40912202429FC001439F900D112402
:1051100064E670E00F94D17088E0CFDC36C007E120
:1051200016E1E12CF12CDE2C40919103842F90E0CC
:10513000880F991F97012D5E3F4F2817390744F4B8
:10514000440F44514E19202F612F80E00E9487396F
:1051500080919103282F30E0220F331F2E153F0539
:1051600034F0880F202F4FE7612F8D1904C0202FB6
:105170004FE7612F80E00E9487392FEFE21AF20A91
:105180001E5F0E5F1A3279F6B1CF809190038111C4
:1051900005C080918A03882309F455C0809170036B
:1051A00081110CC0809122022FEF829FC001112437
:1051B00064E670E00F94D17088E07FDC1092900379
:1051C0001092910380914B0981FF04C040E060E0A0
:1051D00080E003C046E368E288E20E944D330E940B
:1051E000653280E094E00F940579853599F460E0AC
:1051F00088ED98E02A960FB6F894DEBF0FBECDBFBB
:10520000DF91CF911F910F91FF90EF90DF90CF90A2
:105210000C94C4A1C0908A031A8219821C821B823A
:1052200087EF9AE4282F9E838D8388E8482FE12C0E
:10523000FA8000E01C813E815FEF60E070E088ED65
:1052400098E00E94E3A02A960FB6F894DEBF0FBE46
:10525000CDBFDF91CF911F910F91FF90EF90DF9025
:10526000CF900895CF92EF92FF920F931F93CF9319
:10527000DF93CDB7DEB72A970FB6F894DEBF0FBE27
:10528000CDBF0E9453E90E94583C0E94C077811113
:1052900006C00E944B6C60E080E00E94AD750E94E9
:1052A000A47233DBDC01CB0182519D4FAF4FBF4F66
:1052B0008093570390935803A0935903B0935A03D4
:1052C000109290031092910310925B031A8219823C
:1052D0001C821B8289E39DE9282F9E838D8384E0B5
:1052E000482FC12CE12CFA8000E01C813E8150E067
:1052F00060E070E088ED98E00E944FA11A82198268
:105300001C821B828EE398E2282F9E838D8388E87F
:10531000482FFA801C813E815FEF60E070E088EDED
:1053200098E00E9471A160E070E088E02A960FB6D4
:10533000F894DEBF0FBECDBFDF91CF911F910F91CB
:10534000FF90EF90CF90B9CBCF92DF92EF92FF9288
:105350000F931F93CF93DF93CDB7DEB768970FB648
:10536000F894DEBF0FBECDBFD0DA00915703109185
:1053700058032091590330915A030617170728073D
:10538000390718F5D901C8014996A11DB11D8093AF
:10539000570390935803A0935903B0935A039091E5
:1053A000900380919103992341F08250809391035F
:1053B00081110BC01092900308C08E5F80939103FF
:1053C0008E3718F081E0809390030E944833882341
:1053D00009F442C10E94313C92B392FB992790F9A3
:1053E00081E0982780917C0D85FB222720F92917E1
:1053F00081F02091F40E222321F021502093F40E0D
:105400000BC0992311F0806201C08F7D80937C0DC9
:1054100003C088E28093F40E0F94D01B882309F414
:105420007BC08E010F5F1F4F88E1F80111928A95B2
:10543000E9F769EC74E0C8010F9456750E947C3955
:1054400069EB74E08AE00E945E370F94D71B90E00E
:10545000FC013197EA30F10508F046C08827EA568A
:10546000FF4F8F4F0D9422716DEA74E084E10E942A
:105470005E3768EA74E03AC068E974E084E10E944B
:105480005E3763E974E032C066E874E084E10E944C
:105490005E3761E874E02AC062E774E084E10E944C
:1054A0005E376DE674E022C06DE574E084E10E9431
:1054B0005E3768E574E01AC069E474E084E10E9434
:1054C0005E3764E474E012C06FE274E084E10E942D
:1054D0005E376AE274E00AC066E174E084E10E942B
:1054E0005E3761E174E002C069E074E0C8010F94C6
:1054F000377562E074E088E20E945E37B80182E3AB
:105500000E9440358091910360E8681B482F0E94FB
:105510004D33DBD7E0D73DC080917C0D83FD35C096
:1055200080914B09982F907284FF24C091112DC057
:105530001A8219821C821B828FE995EE282F9E8386
:105540008D838CE0482F8F83188619861A86C12C8C
:10555000E12CFA8000E01C813E8150E060E070E0C8
:1055600088ED98E00E9471A180914B098062809340
:105570004B090BC0992349F08F7D80934B096FE94C
:1055800075EE88ED98E00E9460A288ED98E00E9498
:105590001BA0E0918603F0918703309729F080915A
:1055A000F30C8F3F09F0199520ED3CEC4CE45DE3E2
:1055B0006091EB177091EC178091ED179091EE17B9
:1055C0000F94D86F6B017C0123E333E343E75FE380
:1055D00060911E0270911F02809120029091210221
:1055E0000F94D86F9B01AC01C701B6010F942A6CD0
:1055F00060931E0270931F028093200290932102F9
:1056000020ED3CEC4CE45DE36091E3177091E4170E
:105610008091E5179091E6170F94D86F6B017C018C
:1056200023E333E343E75FE360911A0270911B02C7
:1056300080911C0290911D020F94D86F9B01AC01C8
:10564000C701B6010F942A6C60931A0270931B0273
:1056500080931C0290931D0268960FB6F894DEBFEB
:105660000FBECDBFDF91CF911F910F91FF90EF90B3
:10567000DF90CF900895CF93DF931F921F92CDB705
:10568000DEB780E00F94BC591A821982CE010196D0
:105690000F94C55910920F0D0F900F90DF91CF917D
:1056A00008950C94FA3B009739F044E150E0BC01B6
:1056B0008BE593E00D94077610925B0308951092AA
:1056C0005B0308958BE593E00895AC018091760328
:1056D000909177034817590720F41092770310929E
:1056E00076032091750391E0920F909375039831A2
:1056F000CCF088E180937503209176033091770395
:105700002E5F3F4F4217530728F0309377032093C3
:1057100076030895509377034093760388EE809341
:105720007503089591110DC08091760390917703D0
:10573000009739F002979093770380937603209334
:1057400075030895EF92FF920F931F93CF93DF930A
:105750007C018B01EA0120918B0330918C03283866
:105760008FEF3807A9F037FF06C0285E3F4F309310
:105770008C0320938B0320918B0330918C03283171
:10578000310534F02851310930938C0320938B0379
:105790000E947C394EE265E080E40E94713842E369
:1057A0006CE783E00E944E3880918B0390918C03CC
:1057B00007960F9790F42BE24BE367E085E00E9499
:1057C000CB382AE24AE368E086E00E94263AA70145
:1057D00066E181E20E94E93705C0A70166E181E246
:1057E0000E94843780918B0390918C0308970897CF
:1057F00090F42BE24BE767E085E40E94CB382AE285
:105800004AE768E086E40E94263AA80166E181E65C
:105810000E94E93705C0A80166E181E60E9484374D
:10582000209739F180918B0390918C0340970897D2
:10583000B0F42DE34AE765E385E00E94CB382CE322
:1058400049E766E386E00E94263ABE0186E3DF91DF
:10585000CF911F910F91FF90EF900C947137BE0183
:1058600086E3DF91CF911F910F91FF90EF900C9401
:105870005E37DF91CF911F910F91FF90EF900895C8
:105880000E947C3943E36CE783E00C944E38AF927E
:10589000BF92CF92EF92FF920F931F93CF93DF931C
:1058A000CDB7DEB72A970FB6F894DEBF0FBECDBFD7
:1058B0008C015A0120918B0330918C0328388FEF93
:1058C0003807A9F037FF06C0205F3F4F30938C03A5
:1058D00020938B0320918B0330918C032031310571
:1058E00034F02051310930938C0320938B03809145
:1058F0008A03882349F180918B0390918C0307964A
:105900000F9710F56115710511F0FB01199501153F
:105910001105D1F01A8219821C821B82202F1E834E
:105920000D8388E8482F8F838FEF8887CC24C3941A
:10593000E12CFA8000E01C813E815FEF60E070E0C6
:1059400088ED98E00E94E3A09BDFA114B10421F44C
:105950008BEFA82E87E0B82E80918B0390918C035B
:1059600007960F9740F52DE34AE765E385E00E942F
:10597000CB382CE349E766E386E00E94263AC5016E
:105980000F945D75982F990F890FA50166E391E437
:10599000981B892F2A960FB6F894DEBF0FBECDBF95
:1059A000DF91CF911F910F91FF90EF90CF90BF901B
:1059B000AF900C945F36C5010F945D75982F990FC9
:1059C000890FA50166E391E4981B892F2A960FB6EB
:1059D000F894DEBF0FBECDBFDF91CF911F910F9125
:1059E000FF90EF90CF90BF90AF900C946E356F9278
:1059F0007F928F929F92AF92BF92CF92DF92EF925F
:105A0000FF920F931F93CF93DF93CDB7DEB72A9703
:105A10000FB6F894DEBF0FBECDBF6C014A0139014D
:105A20005701A0918B03B0918C03A8388FEFB80772
:105A300099F0B7FF05C05096B0938C03A0938B03E9
:105A400080918B0390918C03803191052CF04097CD
:105A500090938C0380938B0380918A03882309F4AD
:105A60003FC080918B0390918C039C01295F3F4F35
:105A70002F30310580F46115710511F0FB01199586
:105A8000C114D10469F11A8219821C821B822C2D47
:105A9000DE82CD8212C00897089710F50115110516
:105AA00011F0F801199561147104D1F01A8219826C
:105AB0001C821B82262D7E826D8288E8482F8F8370
:105AC0008FEF8887CC24C394E12CFA8000E01C81FE
:105AD0003E815FEF60E070E088ED98E00E9471A188
